:03000B000272047A
:10720400C0E0C083C082758CD8758AEF900186E097
:0972140014F0D082D083D0E032E6
:03000300024E4565
:104E4500C0E0C0F0C083C082C0D075D000C000C033
:0D4E550001C002C003C004C005C006C007B4
:104E620090012CE4F0A37410F0A3E4F075A00FE518
:104E7200A0640F7003024FA57F641270B7AFA0EF5A
:104E820024F5601424FE601A14602224077027900F
:104E9200012CE4F0A3F0801E90012CE4F0A304F0B6
:104EA200801490012CE4F0A37402F0800990012C8C
:104EB200E4F0A37403F075A0F0AFA0EF2450601DDE
:104EC20024E0602124F060252470702F90012CE0F2
:104ED200FFA3E090012CCFF0A3EFF0801E90012DF4
:104EE200E02404800E90012DE02408800690012D1C
:104EF200E0240CF090012CE03400F090012EE0C38D
:104F020094325013E5A064F0600D7F0A1270B790DE
:104F1200012EE004F080E490012CE0FEA3E0FFEE1D
:104F22006003024FA5EFB410005078904F34F82878
:104F32002873024F64024F68024F6C024F70024F97
:104F420074024F78024F7C024F80024F84024F88D6
:104F5200024F8C024F90024F94024F98024F9C02D4
:104F62004FA0E4FF803A7F0180367F0280327F03C8
:104F7200802E7F04802A7F0580267F0680227F077D
:104F8200801E7F08801A7F0980167F0A80127F0B9D
:104F9200800E7F0C800A7F0D80067F0E80027F0FBD
:0B4FA20012399275A00F7FE81270B763
:104FAD00D007D006D005D004D003D002D001D00058
:0B4FBD00D0D0D082D083D0F0D0E03202
:10553700E4900134F0A3F0FF126D531270D7124CB0
:10554700BD12478712625AD2AF438911D2ABD2BB81
:10555700D2A8D28875A00F1270D7E4FF126D53023C
:10556700560590017FE024FD601914605024FD600A
:105577005114607914700302560B240770E41270FB
:105587009780DF90017BE0B40116126AC1E49001B5
:105597007BF090017FF090017CF090017DF0805EC0
:1055A70090017BE0B402BB126B2BE490017BF0907F
:1055B700017FF090017CF090017DF080411263A59E
:1055C70080A012723312721DE4FF126D53125F989E
:1055D70012357F1271E990017FE070FA1270D7E4FB
:1055E700FF126D53126B9AE4F5AF0255697F0112F2
:1055F7006F0F1253FF90017FE070FA1270D7126B92
:105607009A02556990017AE070030255697F011289
:105617006F0FE4FF126D537F0C126F0F90017AE04A
:10562700FFB4030512433A800890017AE0FF124560
:105637007290017FE070FA90017AF01270D7126BC6
:045647009A02556905
:03000600DFFE22F8
:06496C0041018500C102BB
:1070970012643C900136EFF0125AEC900136E0FF93
:0F70A700600D126E6312643C900136EFF080ECC6
:0170B60022B7
:1063A50012643C900136EFF0A3F0E4A3F0A3F0EF04
:1063B500703D900136E0706190017FE0B4042EE4F9
:1063C50090013AF07FC812000690013AE004F0E02F
:1063D500C3940A40EF12643C900136EFF090013906
:1063E500E004F070CD900138E004F080C5802A907B
:1063F5000136E0FF125AEC900136E0FF601B126E89
:106405006312643C900136EFF0900139E004F070BE
:10641500E6900138E004F080DE900137E0FFA3E06C
:10642500FCA3E0FD900185E0FBA2029201126D0242
:06643500900185E004F077
:01643B00223E
:106050000302030204020502050204020302020213
:10606000010201020202030203030201020403020D
:1060700003020402050205020402030202020102F5
:1060800001020202030202030101010402020202F0
:1060900003020102020203010401030201020202DF
:1060A000030104010302020201020202FE040302D0
:1060B00003020402050205020402030202020102B5
:1060C00001020202030202030101010400060107AA
:1060D000010803070108020A020706030206030576
:1060E0000106020802050603020403030104010875
:1060F000010802030608020703040104020702075D
:02610000040099
:044972004101860079
:106AC100E4900138F0438911D2A990017FE0640379
:106AD1007057758CD8758AEF900138E090605093AB
:106AE1002407FF900136F0125AEC900136E0FF7056
:106AF1000122900137EFF0A3E004F0E090605093A1
:106B010075F014A4900186F0D28C900186E0600AA1
:106B1100900137E0FF126E6380F0C28C7F64120037
:096B210006900138E004F080A1A7
:016B2A002248
:106B2B00E4900138F0438911D2A990017FE064030E
:106B3B007057758CD8758AEF900138E09060CD93C3
:106B4B002407FF900136F0125AEC900136E0FF70EB
:106B5B000122900137EFF0A3E004F0E09060CD93B9
:106B6B0075F01EA4900186F0D28C900186E0600A2D
:106B7B00900137E0FF126E6380F0C28C7F641200CD
:096B8B0006900138E004F080A13D
:016B940022DE
:10643C0030911530921230930F30940C3095093006
:10644C00960630970320907C2090037F1B2220918E
:10645C000CA2C5E43375F007A42408805820920CD4
:10646C00A2C5E43375F007A42409804920930CA23B
:10647C00C5E43375F007A4240A803A20940CA2C515
:10648C00E43375F007A4240B802B20950CA2C5E4F3
:10649C003375F007A4240C801C20960CA2C5E433A1
:1064AC0075F007A4240D800D209719A2C5E433754F
:1064BC00F007A4240EFFA2C4E43375F007A4FEC3B6
:0764CC00EF9EFF227F00227A
:10497600603200C8000000000000000000000000D7
:104986000000000000000000000000000000000021
:104996000000000000000000000000000000000011
:1049A600000000000000606400000000000000003D
:1049B60000000000000000000000000000000000F1
:1049C60000000000000000000000000000000000E1
:1049D60000000000000000000000000000000000D1
:1049E60000000000000000000000000000000000C1
:1049F60000000000000000000000000000000000B1
:104A0600000000000000000000000000000060320E
:104A160000FA000000000000000000000000000096
:104A26000000000000000000000000000000000080
:104A36000000000000000000000000000000000070
:104A46000000000060640064000000000000000038
:104A56000000000000000000000000000000000050
:104A66000000000000000000000000000000000040
:104A76000000000000000000000000000000000030
:104A86000000000000000000000000000000000020
:104A96000000000000000000000000000000000010
:0C4AA60000000000000000000000000004
:106D020090013BECF0A3EDF020012074C82BF5823A
:106D1200E43400F583EFF090013BE0FEA3E0FFEBEB
:106D220025E02400F582E43400801E74FA2BF582FB
:106D3200E43400F583EFF090013BE0FEA3E0FFEBCB
:106D420025E02464F582E43400F583EEF0A3EFF04D
:016D5200221E
:10564B0020007C9001307401F0900130E025E024C3
:10565B0000F582E43400F583E0FEA3E0FF4E700317
:10566B00025743900132EEF0A3EFF090013274FF3A
:10567B00F5F0122FE745F0603E900130E024C8F5BD
:10568B0082E43400F583E0701A900131F09001311F
:10569B00E0C3940A50D57FC8120006900131E00494
:1056AB00F080EA900130E024C8F582E43400F58301
:1056BB00E0FF126E6380B4900130E004F0808A90BA
:1056CB0001307401F0900130E025E02464F582E4B0
:1056DB003400F583E0FEA3E0FF4E605C900132EEF8
:1056EB00F0A3EFF090013274FFF5F0122FE745F0C5
:1056FB00603E900130E024FAF582E43400F583E05B
:10570B00701A900131F0900131E0C3940A50D57FAB
:10571B00C8120006900131E004F080EA900130E0FD
:10572B0024FAF582E43400F583E0FF126E6380B453
:08573B00900130E004F0808DC4
:015743002243
:106CAE0000F8008900F9005900FA001300FA006894
:106CBE0000FB000500FB009000FC000C00FC0044F3
:106CCE0000FC00AD00FD000A00FD003400FD008355
:106CDE0000FD00C800FE000600FE002300FE005767
:106CEE0000FE008500FE009A00FE00C200FE00E4D9
:046CFE0000FF000291
:03001B0002724826
:10724800C0E0C083C082900187E4F0B2B0D082D0A1
:0472580083D0E032CD
:106E63009001877401F0EF25E025E024AAF582E480
:106E7300346CF583740193F58DEF25E025E024ACA4
:106E8300F582E4346CF583740193F58BD28E900113
:076E930087E070FAC28E22B5
:1052A400D6D000B8DF00B5CD00446F005265004D84
:1052B4006900466100536F004C6100536900C7EBFD
:1052C400D1A1D4F1D3CECFB7C4D1B6C8002A20C05F
:1052D400A7C4D1002A20D6D0B5C8002A20C8DDD260
:1052E400D7002A20C2BCD2F4D2BB002A20C2BCD22E
:1052F400F4B6FE00CFD6D4DABFAACABCB5AFD7E0A5
:10530400B0C900B0B4D7F3C9CFBDC7B0B4BCFCCDED
:10531400CBB3F600C7EBCBE6D2E2B5AFD7E0B0C96A
:10532400A3A100B0B4D7F3C9CFBDC7B0B4BCFCCD02
:10533400EAB3C9002A20BBB6C0D6CBCC002A20CC05
:10534400ECBFD5D6AEB3C700B8E8C7FAB2A5B7C5A7
:10535400D6D000C7EBC9D4BAF3B2D9D7F7A1ADA15F
:10536400AD00D2F4BDD7A3BA2020002A20D7D4BCE4
:10537400BAB5AFD7E0D2F4C0D6002A20B2A5B7C5DB
:10538400CFD6D3D0B8E8C7FA002A20CED2CFEBD2FA
:10539400AAC2BCD2F4A3A1002A20BED8D5F3BCFC77
:1053A400C5CCB5AFD7E0002A20B2A5B7C5D2D1D3BA
:1053B400D0C2BCD2F4002A20B6EDC2DECBB9B7BD50
:1053C400BFE9002A20D1A7CFB0B9A6C4DC002A20A7
:1053D400BDDAD7E0B4F3CAA6A3A10000010002001D
:1053E40004000800100020004000800100020004B6
:0B53F4000008001000200040008000B6
:104AB20041017F0041017A0041017C0041017D00FA
:084AC20041017B0041017E016E
:03001400000022C7
:1070B7007E00D3EF9400EE940040147D647C00EDD5
:0F70C7001D70011CED4C70F7EF1F70E61E80E38B
:0170D6002297
:10725C007580FFC2B6D2B5D2B400E5805480FFC2AF
:01726C00B46D
:01726D0022FE
:0E7009007F01126C657D077F03126F907F0E72
:10701700AE0712725CEF70FAD2B6C2B5C2B4000006
:0B702700AF068F80D2B40000C2B4227C
:0E703200127040AD077C00127040EF7D00FC34
:1070400012725CEF70FA7580FFD2B6D2B5D2B4007E
:04705000AF80C2B497
:017054002219
:106EFD00E92480FF126F0F90014DE0FF90014BE0F0
:026F0D002FFF54
:106F0F00AE0712725CEF70FAC2B6C2B5C2B400001F
:0D6F1F00AF068F800000D2B40000C2B42283
:076F89007F01126C65E4FFBB
:106F9000EF540314600E14600F1460102403700E7D
:106FA0007C80800A7C9080067C8880027C98ED2C16
:056FB000FCFF026F0F61
:0E6C57007F01126F0F7A5279F87BFFE4FDFF88
:106C6500EFD394035042ED9407503DC2AFEF14604B
:106C75000F14601114601324037016ED2480800D29
:106C8500ED24908008ED24888003ED2498FF126F91
:106C95000F122F36FFD39400400C12701774012980
:096CA500F9E43AFA80EBD2AF22C7
:0F5D520090016FA3E0FFA3A3E0FD90016EE0FBC3
:0C5D610090014CEBF0A90590014BEFF015
:105D6D00C394804003025E13E9C394404003025E76
:105D7D001390014CE05401F090014BE0FF540FFEE5
:105D8D00C3740F9E90014EF0EFC4540F90014BF071
:105D9D00E9C3942090014D50057480F08003748800
:105DAD00F0E9541FF9C2AF7F36126F0F126EFD125C
:105DBD007032EFFDD2AFA3E090014EB40117E02594
:105DCD00E024DFF582E43453F583E4934CFC740155
:105DDD00934DFD801BE025E024DFF582E43453F57F
:105DED0083E493FE740193F4FFEEF45CFCED5FFD30
:105DFD00C2AF126EFDECFF127017AF051270177F58
:065E0D0030126F0FD2AF4E
:015E1300226C
:02679900AC074B
:10679B00ECC394805006EDC3944040037F0022EC81
:1067AB00540FFFC3740F9F90013AF0ECC4540FFCCD
:1067BB00EDC394205004798080027988ED541FFD3D
:1067CB00C2AF7F36126F0FAF05EF2480FF126F0F32
:1067DB00EC29FF126F0F127032EFD2AFAE044E6086
:1067EB001E90013AE025E024DFF582E43453F58373
:1067FB007401937002E49360067E007F0180047E37
:0B680B00007F00EF4E7002FF227F01B3
:01681600225F
:0B6F5B00900147EFF0A3EDF0A3EBF076
:106F66006020E4FA900149E0FFEAC39F50149001C3
:106F760047E02AFFA3E0FD90014AE0FB125D610AAB
:026F860080E2A7
:016F880022E6
:10001E00FFE0FD900144E0C39D04FBA3E090014A84
:01002E00F0E1
:0B002F00900147EFF0A3EDF0A3EBF011
:10003A006020E4FA900149E0FFEAC39F501490015E
:10004A0047E0FFA3E02AFD90014AE0FB125D610A46
:02005A0080E242
:01005C002281
:0C31340090016CEBF0AA0790016BEDF02D
:10314000E4900177F0A3F0A3F090016DE0FFC39D40
:10315000502FEAFD7C0090016FECF0A3EDF09001A0
:103160006BE0FB900171E4F0A3EBF090016CE0FAEE
:1031700090016BEFF0A3EDF0900171A3E090016D71
:10318000F090016BE0FF90016DE0C39FFFE49400BD
:10319000FE900175F0A3EFF04E705590016CE0FFCA
:1031A000EAD39F4012EAFD7C0090016FECF0A3EDA2
:1031B000F0AA0790016CF0EAFF90016FE4F0A3EF32
:1031C000F090016CE0FF90016FE0FCA3E0FDD39F65
:1031D000EC9400400302357EAF0590016B125D5AFE
:1031E000900170E004F070D990016FE004F080D19C
:1031F00090016CE0FFC39A400C9001797401F0EAF1
:10320000FDEF9D800890016CE0FFEAC39FFEE4940F
:1032100000900173F0A3CEF0AF027E0090016FEE3C
:10322000F0A3EFF090016BE0FD7C00900171ECF0F9
:10323000A3EDF07B01125D61900179E07003023330
:1032400006900173E0FEA3E0FFD3900176E09F902B
:103250000175E09E400302330690016CE0F9FF9097
:10326000016FE07003A3E06F700302357E90017779
:10327000E0FEA3E0FFC3EE648094805030900170C4
:10328000E004F0700690016FE004F090016DE0FD45
:10329000900171E0FAA3E0FBC3ED9BFDE49AFC9082
:1032A0000178E02DF0900177E03CF08053900170C0
:1032B000E004F0700690016FE004F0900172E00409
:1032C000F07006900171E004F090016DE0FD900156
:1032D00071E0FAA3E0FBC3ED9BFDE49ACD2FFFED77
:1032E0003EFEE9FD90016FE0FAA3E0FBC3ED9BFD1C
:1032F000E49AFCC3EF9DFFEE9C900177F0A3EFF002
:10330000125D52023259900179E070030233D99074
:103310000173E0FEA3E0FFD3900176E09F9001757A
:10332000E09E50030233D990016DE0F9FF900171E6
:10333000E0FCA3E0FD6F7001EC700302357E9001AC
:103340006CE0FF90016FE0FAA3E0FBC3EF9BFEE4AB
:103350009A900173F0A3CEF0E9C39DFEE49CA3F024
:10336000A3CEF0A3E0FEA3E0FFC3EE648094805000
:103370003F900170E004F0700690016FE004F0905F
:103380000172E004F07006900171E004F0900175A4
:10339000E0FCA3E02FFFEE3CFE900173E0FCA3E015
:1033A000FDC3EF9DFFEE9C900177F0A3EFF080232B
:1033B000900172E004F07006900171E004F0900159
:1033C00073E0FEA3E0FFC3900178E09FF0900177E7
:1033D000E09EF0125D52023327900179E0FA60031B
:1033E0000234AF900173E0FEA3E0FFD3900176E0DA
:1033F0009F900175E09E40030234AF90016CE0FFA6
:103400007E0090016FE0FCA3E0FD6F7001EC7003A3
:1034100002357EC3ED9FFFEC9E900173F0A3EFF0A9
:1034200090016DE0FF900171E0FCA3E0FDC3EF9D12
:10343000FFEE9C900175F0A3EFF0A3E0FEA3E0FF88
:10344000C3EE648094805024900170E024FFF090DB
:10345000016FE034FFF0900175E0FCA3E0FD900106
:1034600078E02DF0900177E03CF0803D900170E035
:1034700024FFF090016FE034FFF0900172E004F05F
:103480007006900171E004F0900175E0FCA3E02F5C
:10349000FFEE3CFE900173E0FCA3E0FDC3EF9DFF57
:1034A000EE9C900177F0A3EFF0125D520233FBEA3D
:1034B000600302357E900173E0FEA3E0FFD390012C
:1034C00076E09F900175E09E500302357E90016D7D
:1034D000E0F9FF900171E0FCA3E0FD6F7001EC707A
:1034E0000302357E90016CE0FFC3900170E09FFE07
:1034F00090016FE09400900173F0A3CEF0E9C39DBA
:10350000FEE49CA3F0A3CEF0A3E0FEA3E0FFC3EE95
:1035100064809480503F900170E024FFF090016F30
:10352000E034FFF0900172E004F07006900171E069
:1035300004F0900175E0FCA3E02FFFEE3CFE90014B
:1035400073E0FCA3E0FDC3EF9DFFEE9C900177F0DC
:10355000A3EFF08023900172E004F07006900171F7
:10356000E004F0900173E0FEA3E0FFC3900178E077
:0E3570009FF0900177E09EF0125D520234CD84
:01357E00222A
:0F65FF00900142EDF0900141EFF0900143EBF07D
:10660E00EFD39B4016900141E0FF900146F09001C0
:10661E0043E0900141F0900143EFF0900144E0FF20
:10662E00900142E0FED39F400F900146EEF09001A4
:10663E0042EFF0900144EEF0900141E0A312001EF3
:10664E00900143E090014212001E900141E0FFA331
:10665E00E0FDA3E0C39F04FB900145E090014AF0EA
:10666E00126F5B900141E0FF900144E0FD90014309
:10667E00E0C39F04FB900145E090014AF0026F5B7E
:105BC300900140EFF0AA03A3EDF0900143E02FFF13
:105BD300ED2AFDA3E0FB125D61900140E02AFF90F6
:105BE3000143E0FE900141E02EFD900144E0FB12F1
:105BF3005D61900140E0C39AFF900143E0FE900194
:105C030041E02EFD900144E0FB125D61900143E011
:105C1300FF900140E0C39FFFA3E02AFD900144E011
:105C2300FB125D61900143E0FF900140E0C39FFFE1
:105C3300A3E0C39AFD900144E0FB125D6190014033
:105C4300E0C39AFF900143E0FE900141E0C39EFD53
:105C5300900144E0FB125D61900140E02AFF900156
:105C630043E0FE900141E0C39EFD900144E0FB123E
:105C73005D61900143E0FF900140E02FFFA3E0C38B
:0A5C83009AFD900144E0FB025D6110
:08610200900137EFF0A3EDF06E
:10610A00E490013BF0A3EBF0FEA37403F0C3149BED
:10611A00C39BA3F0C374019BA3F0900143EEF090DC
:10612A00013AE0900144F0E4FB807490013CE0FF06
:10613A0090013BE0C39F506C90013FE0C3648094A0
:10614A0080501A90013DE0FF90013FE02FF090014E
:10615A003DE02402F090013BE004F0802790013EEC
:10616A00E0FF90013DE02FFF90013FE02FF090010A
:10617A003DE02402F0A3E02402F090013BE004F0A9
:10618A00A3E014F0900137E0FFA3E0FD90013BE0AB
:10619A00FBA3E0900143F090013AE0900144F01231
:0461AA005BC38087CC
:0161AE0022CE
:106D5300EF20E004E4FD80027DFF7F36126F0FE435
:106D6300FCECC394095031E4FBE4FAC2AFEB24809A
:106D7300FF126F0FEA24802CFF126F0FAF05127002
:106D830017AF05127017D2AF0AEAB408DE0BEBB4E3
:0D6D930020D774082CFC80C97F30026F0FE0
:10721D00D2B37F30126F0F7F0C126F0F7F01126F81
:06722D000F7F06026F0F47
:10726E00AC077F34126F0FAF05126F0FAF04026FB2
:01727E000F00
:0B61AF00900144EFF0A3EDF0A3EBF033
:1061BA00E490014BF0900147E0FF90014BE0FEC3F1
:1061CA009F4003026255EEFF900145E0FD2FFFE478
:1061DA0033FEC3EF9420EE64809480900144E05033
:1061EA000BC4540F2480FFED2480800AC4540F246A
:1061FA0088FFA3E02460FE90014BE02EFD12726E30
:10620A00E490014CF0900146E0FF90014CE0FDC3A0
:10621A009F502F90014BE0FEEF8EF0A47C002DFFE3
:10622A00EC35F0FE900148E0FBA3E0FAA3E0F98F19
:10623A00828E83122F4FFF12701790014CE004F0E8
:10624A0080C390014BE004F00261BF7F36026F0FFA
:1070D700D2B37F30126F0F7F0A1270B77F0F126F14
:1070E7000F7F0A1270B77F01126F0F7F0A0270B706
:025AEC00AB0706
:105AEE00EB24FFFFE434FFFE7C007D07122F7C9039
:105AFE00013BEFF0EB24FFFFE434FFFE7C007D075B
:105B0E00122F7CAC0590017EE0F4F0EB7003025B8B
:105B1E00C290013BE0B401087BFF7A5279A4801B4E
:105B2E0090013BE0B402087BFF7A5279A7800C907B
:105B3E00013BE0700D7BFF7A5279AA7D037F021242
:105B4E006C65EC70087BFF7A5279AD8046ECB4013F
:105B5E00087BFF7A5279B0803AECB402087BFF7A68
:105B6E005279B3802EECB403087BFF7A5279B6805B
:105B7E0022ECB404087BFF7A5279B98016ECB40596
:105B8E00087BFF7A5279BC800AECB4060D7BFF7A53
:105B9E005279BF7D037F03126C6590017EE07B001E
:105BAE00B401067A0D790E80047A0E790D7D037F8D
:045BBE0007126C65F9
:015BC20022C0
:106E9A007F01126F0F7A5279C2126C607A5279D1DD
:106EAA007F01126C657A5279D87F02126C657A5228
:106EBA0079DF7F03126C657F01126F9090017D74F8
:036ECA0001F022B2
:107137007F01126F0F7BFF7A5279E6E4FDFF126C35
:0E714700657A5279EF126F89E490017DF02293
:0F727F00126C577A5379071270097F03026F90D0
:1071AF007F01126F0F7BFF7A537918E4FDFF126C8A
:0D71BF00657A5379271270097F03026F90E3
:1070F7007F01126F0F7BFF7A537938E4FDFF126C23
:10710700657A537941126F89E490017CF0A3F022EC
:1071CC007F01126F0F7BFF7A53794CE4FDFF126C39
:0D71DC00657A5379571270097F03026F9096
:10705500126C577A5379077F01126C657A537966FA
:107065007F02126C657D077F03126F907F0E0270A1
:017075001703
:106F2C0090017FE004F0E024FD6014146014146000
:106F3C001414601424FD601324077012027055029F
:0F6F4C0070F70271AF02727F027137126E9A22D4
:056B9500E490017FF017
:106B9A0090017DE0C394047F01502F126F0F7BFF99
:106BAA007A53796FE4FDFF126C657A53797E7F011F
:106BBA00126C657A53798D7F02126C657A53799CCF
:106BCA007F03126C657F80026F0F126F0F7BFF7A53
:106BDA005379ABE4FDFF126C657A5379BA7F0112DF
:106BEA006C657A5379C77F02126C657A5379D27FC2
:056BFA0003126C65228E
:1039920090012FEFF090017FE0707490012FE024EE
:1039A200F76045146028146003023D8A90017DE0AF
:1039B200FFD39403400AEFD394075004E0148039F4
:1039C20090017DE0D394004043E014F0803E9001EA
:1039D2007FE004F090017DE0FF90017FE02FF0E4B2
:1039E200FDFF126F90026F2C90017DE0FFC39403E4
:1039F200400EEF94075009E004F0126B9A023D5218
:103A020090017DE0C394035003E004F0023D529024
:103A1200017FE0B4021790012FE0640F6003023DC2
:103A22008A126B96E4FDFF126F90023D8390017F34
:103A3200E06403704E90012FE024F7603114601AA5
:103A420024FB603924046003023D8A90017DE0D3A7
:103A520094004003E014F0023D5290017BE004F038
:103A620090017DE0FF90017BE02FF00271CC90018C
:103A72007DE0C394015003E004F0023D52126B95C5
:103A8200023D8390017FE0FCB4041C90012FE064AE
:103A92000F6003023D8A126B96E490017CF0A3F062
:103AA200B202900185F022EC64056003023CAC9006
:103AB200012FE0602E14606C147003023B671470D7
:103AC20003023BA8147003023BE9147003023C2A70
:103AD200147003023C6B24F76003023D8A126B955B
:103AE200023D83A2C5E43375F007A4240EFFA2C4ED
:103AF200E43375F007A4FEC3EF9EFF125AEC30B216
:103B020003023D8AA2C5E43375F007A4240EFFA286
:103B1200C4E43375F007A4FEC3EF9EFF126E637513
:103B2200A00F80DAA2C5E43375F007A4240DFFA22A
:103B3200C4E43375F007A4FEC3EF9EFF125AEC30C3
:103B4200B203023D8AA2C5E43375F007A4240DFF37
:103B5200A2C4E43375F007A4FEC3EF9EFF126E63A6
:103B620075A00F80DAA2C5E43375F007A4240CFF18
:103B7200A2C4E43375F007A4FEC3EF9EFF125AEC11
:103B820030B203023D8AA2C5E43375F007A4240CC7
:103B9200FFA2C4E43375F007A4FEC3EF9EFF126ECA
:103BA2006375A00F80DAA2C5E43375F007A4240B75
:103BB200FFA2C4E43375F007A4FEC3EF9EFF125ABE
:103BC200EC30B203023D8AA2C5E43375F007A424A7
:103BD2000BFFA2C4E43375F007A4FEC3EF9EFF12ED
:103BE2006E6375A00F80DAA2C5E43375F007A424D2
:103BF2000AFFA2C4E43375F007A4FEC3EF9EFF12CE
:103C02005AEC30B203023D8AA2C5E43375F007A430
:103C1200240AFFA2C4E43375F007A4FEC3EF9EFF9B
:103C2200126E6375A00F80DAA2C5E43375F007A4A3
:103C32002409FFA2C4E43375F007A4FEC3EF9EFF7C
:103C4200125AEC30B203023D8AA2C5E43375F00782
:103C5200A42409FFA2C4E43375F007A4FEC3EF9EB7
:103C6200FF126E6375A00F80DAA2C5E43375F00708
:103C7200A42408FFA2C4E43375F007A4FEC3EF9E98
:103C8200FF125AEC30B203023D8AA2C5E43375F04A
:103C920007A42408FFA2C4E43375F007A4FEC3EF0F
:103CA2009EFF126E6375A00F80DA90017FE06406BA
:103CB200705290012FE024F7603B146027146015C6
:103CC20024FC6003023D8AE490017FF090017CF0C5
:103CD200A3F0026B9AE490017DF090017CE0FDE498
:103CE200FF023D7D1271CC90017DE024FF92001213
:103CF200564B02713790017D7401F090017CE0FD1A
:103D02007F01807790017FE0FFB4070B90012FE0E5
:103D120024F17074E4800CEFB4080E90012FE0647B
:103D22000F706590017FF0805990017FE064097007
:103D32005790012FE024F7602C14602024FB603E92
:103D42002404704490017DE0D394014003E014F018
:103D520090017DE0FF90017CE0FD801F90017DE0FD
:103D620090017AF02290017DE0C394035003E004B5
:103D7200F090017DE0FF90017CE0FD026F90126BFC
:093D820095E490017CF0A3F0220D
:1064D3005445545249530053636F72653A004C65F7
:1064E30076656C3A00C7EBCDCBB3F600596F7520D8
:1064F3005061737300506C6179696E6700202020CE
:10650300202020202020200050617573650088C062
:10651300E800622002E0226008E0C880E2008C40CC
:106523006C008C406C004C80C6004C80C60004E0BC
:106533008C80E400262044440F0044440F0006608E
:1065430006600660066000010002000400080010F7
:106553000020004000800100020004000800100039
:0665630020004000800052
:104ACA0044015000000001202A210FFF08010801BB
:104ADA000801080108010801080108010801080184
:104AEA000801080108010801080108010801080174
:104AFA0008010FFF4101680041014F0041016901AE
:084B0A0041016705410154005F
:105C8D00E47BC87AADF9F8900150E0FCA3E0FDA3E8
:105C9D00E0FEA3E0FF123088E47B477A0DF9F8129D
:105CAD002FFDC004C005C006C007E47BC87AADF95E
:105CBD00F8900150E0FCA3E0FDA3E0FEA3E0FF128D
:105CCD003088AC00AD01AE02AF03E47B8F7ABCF936
:105CDD00F8122FFDD003D002D001D000C3EF9BFFEF
:105CED00EE9AFEED99FDEC98FC900138123128905A
:105CFD000138E0FCA3E0FDA3E0FEA3E0FFEC339050
:105D0D0001384006A3A3A3E08019E0FCA3E0FDA3A6
:105D1D00E0FEA3E024FFFFEE34FFFEED34FFFDECCB
:105D2D00347FFC900150123128900150E0FCA3E02B
:105D3D00FDA3E0FEA3E0FFE4122D5FE4FBFAF9788A
:045D4D004F122CC203
:015D5100222F
:06000E00900150023128B0
:10711700E4FDFCC3ED9FEC9E5015E4FBFA0BBB00AE
:0F712700010AEB640A4A70F50DBD00010C80E40B
:017136002236
:10723300758CD8758AEF75D6FFE4F5D7758E107502
:05724300AF04D2AF22F0
:0300630002690A25
:10690A00C0E0C0F0C083C082C0D075D000C000C053
:10691A0001C002C003C004C005C006C00712592541
:10692A00EF24F3601824FC601C24FC602024FC6023
:10693A0024241070269001547406F0801E9001548D
:10694A007402F080169001547403F0800E90015482
:10695A007404F080069001547405F0D007D006D074
:10696A0005D004D003D002D001D000D0D0D082D03C
:06697A0083D0F0D0E032F2
:105F9800E4900136F0900136E0FFC3940C503AEFDC
:105FA80075F003A4FF2402FB9001447402F0A314CB
:105FB800F0E4FD1265FF900136E075F003A4FF24BC
:105FC80002FB900144743EF0A37401F07D3C12651D
:105FD800FF900136E004F080BCE4900136F09001B7
:105FE80036E0FFC394145039EF75F003A4FD240282
:105FF800900144F0A37401F07B02E4FF1265FF9066
:106008000136E075F003A4FD2402900144F0A37466
:1060180001F07B237F211265FF900136E004F080B8
:10602800BD7BFF7A6479D37D04E4FF126C657BFF46
:106038007A6479DA7D037F02126C657BFF7A647972
:08604800E17D037F03026C659A
:1071E900900168E07BFF30E1067A6479E880047AEF
:0B71F9006479EF7D037F01126C6522BA
:1063000078387C017D017B017A0179557E007F061A
:08631000122EEEE490013EF0B4
:10631800E490013FF0E4900140F0900140E0FFC3B9
:106328009404506990013FE0FE25E025E0FDEF2D43
:1063380025E02449F582E43465F583E493FC74018F
:1063480093FD900138E05CFCA3E05D4C6037900160
:1063580040E075F003A4FF90013AE02FFFC007EE7C
:1063680075F003A4FEA3E0FC24FEC39EFDEF240207
:10637800FBC3EC9E900144F090013EE0900145F093
:10638800D0071265FF900140E004F0808D90013F36
:0C639800E004F0E0C39404500302631D15
:0163A40022D6
:105E1400E4900138F0E4900139F0900139E0FFC3D7
:105E240094044003025EC7900138E0FB25E025E0BE
:105E3400FEEF2E25E02449F582E43465F583E493EE
:105E4400FE740193FF900155E05EFEA3E05F4E6097
:105E540069900158E024FEFFE434FFFE7C007D03DA
:105E6400122F7CC374149FFFEB2F25E02421F8C06C
:105E740000E6FC08E6FD900157E0FF75F003122FE1
:105E840014FF3395E0FEC3740B9FFFE49EFE900164
:105E940039E0FBC3EF9BFFEE9400FEEF25E0FFEE3D
:105EA40033FE74492FF58274653EF583E4934CFE0A
:105EB4007401934DD000A60608F6900139E004F071
:105EC400025E1E900138E004F0E064046003025EA8
:015ED40019B4
:015ED50022AA
:105ED600E4900138F0E4900139F0900139E0FFC315
:105EE60094044003025F87900138E025E025E0FE38
:105EF600EF2E25E02449F582E43465F583E493FE2C
:105F0600740193FF90015BE05EFEA3E05F4E606864
:105F1600A3E0FF75F003122F14FF3395E0FEC37460
:105F26000B9FFFE49EFE900139E0FDC3EF9DFFEE5F
:105F36009400FEEF25E0FFEE33FE74492FF58274E0
:105F4600653EF583E493FA740193FB90015EE024C9
:105F5600FEFFE434FFFE7C007D03122F7CC3741425
:105F66009FFF900138E02F25E02421F8EA56FEEB4A
:105F760008564E60037F0022900139E004F0025E6D
:105F8600E0900138E004F0E064046003025EDB7F29
:015F96000109
:015F970022E7
:10715500785B7C017D017B017A0179557E007F0694
:0E716500122EEE90015EE02403F0125ED622A0
:10717300785B7C017D017B017A0179557E007F0676
:0E718300122EEE90015DE024FDF0125ED62289
:10719100785B7C017D017B017A0179557E007F0658
:0E71A100122EEE90015DE02403F0125ED62265
:106BFF00785B7C017D017B017A0179557E007F06F0
:106C0F00122EEE900160E004F0D394034002E4F002
:106C1F0090015FE025E025E0FFA3E02FFD25E024B4
:106C2F0011F582E43465F583E493FEED25E024123B
:106C3F00F582E43465F583E493FDEDFF90015BEE9F
:076C4F00F0A3EFF0125ED686
:016C5600221B
:104B2800E4FB900158E024FEFFE434FFFE7C007DA6
:104B380003122F7CEFC3941440047F018005C374D3
:104B4800149FFFEF2403900139F0900139E0FEC370
:104B58009F405EEE25E02421F8E6FC08E6F47003A9
:104B6800EC640F70447B01E004900138F090013848
:104B7800E0FED394135021E0FD25E02421F8E6F56A
:104B88008308E6F582ED25E0241FF8A68308A682AF
:104B9800900138E004F080D5EE25E02421F876086D
:104BA80008760190014FE004F0900139E014F0809C
:104BB80099EB7003024CBC900138EFF0900138E09B
:104BC800D394134003024CBCA37401F0900139E064
:104BD800FFD3940A4003024CB3EF25E02449F58241
:104BE800E43465F583E493FE740193FF900138E0A3
:104BF800FD25E02421F8E6FA08E6FBEE5AFEEF5B15
:104C08004E704DA3E075F003A4FFC374219FFFED20
:104C180075F003A4FEC3743C9EFD126799EF700300
:104C2800024CAA900139E075F003A4FEC374219EDA
:104C3800FF900138E075F003A4FCC3743C9CFDC3ED
:104C480074239EFBC3743E9C900144F0E4A3804E01
:104C5800900139E075F003A4FFC374219FFF900110
:104C680038E075F003A4FEC3743C9EFD126799EF0B
:104C78007030900139E075F003A4FEC374219EFFE3
:104C8800900138E075F003A4FCC3743C9CFDC37428
:104C9800239EFBC3743E9C900144F0A37401F01260
:104CA80065FF900139E004F0024BD4900138E0042C
:044CB800F0024BC4F7
:014CBC0022D5
:10681700E4FDFE7B0178387C010D7A017961126312
:106827000E125C8DE4FBFA79E07841122BB9122D38
:106837009DAD07ED25E02411F582E43465F583E489
:1068470093FEED25E02412F582E43465F583E493A5
:10685700FBEBFF900161EEF0A3EFF0A3742DF0A323
:10686700740EF0ED1313543FA3F0ED5403A3F07827
:10687700387C017D017B017A0179617E007F0612F8
:0B6887002EEE90013E7401F002631839
:106FB50090014FE0FD75F00A844430900138F0ED02
:106FC50075F00A84E5F04430A3F0E4A3F07B017A80
:0A6FD5000179387D067F02026C6529
:106FDF00900169E0FD75F00A844430900138F0EDBE
:106FEF0075F00A84E5F04430A3F0E4A3F07B017A56
:0A6FFF000179387D067F03026C65FE
:10357F007821760F0876FF08760808760108760816
:10358F00087601087608087601087608087601089B
:10359F007608087601087608087601087608087616
:1035AF00010876080876010876080876010876087B
:1035BF00087601087608087601087608087601086B
:1035CF0076080876010876080876010876080876E6
:1035DF00010876080876010876080876010876084B
:1035EF0008760108760808760108760F0876FFE45A
:1035FF00900168F004F0AF8AE4FCFDFE12000E7B30
:10360F00FF7A6479F87D037F01126C65126FB51232
:10361F006FDF12681790017FE06407600302399132
:10362F00900168E0FF20E0030237A754FEF07855C1
:10363F007C017D017B017A0179617E007F06122E6C
:10364F00EE126817900157740CF0A3740EF0E4900B
:10365F000136F0E4900137F0900137E0FFC3940496
:10366F005035900136E025E025E0FEC3740F9EC370
:10367F009F25E02449F582E43465F583E493FE74D5
:10368F000193FF900155E05EFEA3E05F4E6008904E
:10369F000137E004F080C1900137E0B404079001D6
:1036AF0058E024FDF0900136E004F0E0B404A4E407
:1036BF00900136F0E4900137F0900137E0FFC394AA
:1036CF00044003023773900136E025E025E0FEEF5A
:1036DF002E25E02449F582E43465F583E493FE74E6
:1036EF000193FF900155E05EFEA3E05F4E606CA377
:1036FF00E0FF75F003122F14FF3395E0FEC3740B38
:10370F009FFFE49EFE900137E0FDC3EF9DFFEE9417
:10371F0000FEEF25E0FFEE33FE74492FF58274654E
:10372F003EF583E493FA740193FB900158E024FE75
:10373F00FFE434FFFE7C007D03122F7CC374149FC3
:10374F00FF900136E02F25E02421F8EA56FEEB0822
:10375F00564E6007900168E04402F0900137E00494
:10376F00F00236C8900136E004F0E0640460030212
:10377F0036C3900168E030E10302399178387C015B
:10378F007D017B017A0179557E007F06122EEE9026
:10379F00013E7401F0126318900154E024FE70038F
:1037AF0002384F14607724FE603E1470030238CE47
:1037BF0024026003023902E4900154F0900168E0A2
:1037CF0020E215127173EF70030239021263009039
:1037DF000157E024FD0238AF900169E004F0C39473
:1037EF000A40347401F0802FE4900154F090016886
:1037FF00E020E215127191EF70030239021263009B
:10380F00900157E024030238AF900169E004F0C340
:10381F00940A40037401F0126FDF023902E4900141
:10382F0054F0900168E030E203023902127155EF53
:10383F007003023902126300900158E02403806084
:10384F00E4900154F0900168E030E2030239021273
:10385F006BFFEF700302390212630090015AE0040C
:10386F00F0D394034002E4F0900159E025E025E005
:10387F00FFA3E02F900136F0E0FD25E02411F58243
:10388F00E43465F583E493FEED25E02412F582E43C
:10389F003465F583E493FDEDFF900155EEF0A3EF52
:1038AF00F078387C017D017B017A0179557E007FAC
:1038BF0006122EEE90013E7401F01263188034E46C
:1038CF00900154F0900168E06404F07BFF7A657911
:1038DF00007D037F0120E20B126C657BFF7A647918
:1038EF00F88009126C657BFF7A65790B7D037F0188
:1038FF00126C65900168E030E2030236247FF47E9B
:10390F0001127117900169E0FF1EC3740B9FFFE452
:10391F009EFEEF25E0FFEE33FE900167E004F0C35B
:10392F009FEE6480F87480985003023624E4F012FE
:10393F007155EF6029126300900158E02403F0786D
:10394F00387C017D017B017A0179557E007F06125B
:10395F002EEE90013E7401F0126318023624125EAF
:10396F0014124B28126FB590014FE0C39414400806
:10397F00900168E054FDF022900168E04401F002EC
:02398F003624DC
:013991002213
:104B12004101800041018100410182004201830084
:014B22000092
:106ECD007590FFAD90E4FC74017E00A80408800568
:106EDD00C333CE33CED8F9FFEDFBEF5B60050CEC81
:0F6EED00B408E4ECC394085004EC04FF227F00C7
:016EFC002273
:10592500126ECD900180E01460241460561470034B
:105935000259DA24036003025A06EF600EE490016F
:1059450081F0A3EFF09001807401F07F00229001B7
:1059550082E0FE6F6007E4900180F0FF22900181F4
:10596500E004F0D394034018E4F09001807402F051
:10597500E4900183F0A3F0EE1425E025E004FF2276
:105985007F0022900183E475F001122FD1FCD3E54D
:10599500F094FAEC94004018E4900181F0900180B5
:1059A5007403F0900182E01425E025E02402FF2233
:1059B500900182E0FE6F6042900181E004F0D39493
:1059C50003400FE4900180F0EE1425E025E0240368
:1059D500FF227F0022900182E0FE6F601D90018111
:1059E500E004F0D39403400FE4900180F0EE142519
:1059F500E025E02404FF227F0022E4900181F0FFEE
:035A0500227F00FD
:015A0800227B
:10671A002020202000D6D0446F00D6D0526500D663
:10672A00D04D6900D6D0466100D6D0536F00D6D07E
:10673A004C6100D6D053690030003100320033007A
:10674A003400B5B1C7B000202000D5E2D6BBCAC715
:10675A00C8EBC3C5A3AC2020202000B1E4C7BFBB4F
:10676A00B9D2AAB6E0C1B7CFB0C5B60003020302D8
:10677A0004020502050204020302020201020102E6
:0F678A00020203020303020102010000000000EB
:10698000EFB40800506490698DF82828730269A557
:106990000269AD0269B50269BD0269C50269CD022D
:1069A00069D50269DD7BFF7A67791A80367BFF7AC9
:1069B00067791F802E7BFF7A67792480267BFF7A98
:1069C000677929801E7BFF7A67792E80167BFF7A94
:1069D000677933800E7BFF7A67793880067BFF7A90
:0B69E00067793D7D067F02126C652286
:1069EB00EFB4080050649069F8F8282873026A1015
:1069FB00026A18026A20026A28026A30026A3802A6
:106A0B006A40026A487BFF7A67791A80367BFF7A85
:106A1B0067791F802E7BFF7A67792480267BFF7A2C
:106A2B00677929801E7BFF7A67792E80167BFF7A28
:106A3B00677933800E7BFF7A67793880067BFF7A24
:0B6A4B0067793D7D037F02126C65221D
:106A5600EFB408005064906A63F8282873026A7BD2
:106A6600026A83026A8B026A93026A9B026AA30223
:106A76006AAB026AB37BFF7A67791A80367BFF7A44
:106A860067791F802E7BFF7A67792480267BFF7AC1
:106A9600677929801E7BFF7A67792E80167BFF7ABD
:106AA600677933800E7BFF7A67793880067BFF7AB9
:0B6AB60067793DE4FD7F02126C652251
:106DEA00EF14601514601A14601F146024240470D0
:106DFA002D7BFF7A677942801E7BFF7A6779448010
:106E0A00167BFF7A677946800E7BFF7A677948801E
:0F6E1A00067BFF7A67794A7D067F03126C65223B
:10689200E490013EF090013EE0FFD3942A503AEF9B
:1068A20075F003A4FF2402FB9001447402F0A314C8
:1068B200F0E4FD1265FF90013EE075F003A4FF24B1
:1068C20002FB900144743EF0A37401F07D3C12651A
:1068D200FF90013EE004F080BCE490013EF09001A4
:1068E2003EE0FFC39415501FEF75F003A4FD240290
:1068F200900144F0A37401F07B5C7F5A1265FF9013
:07690200013EE004F080D724
:01690900226B
:106DA000E490013EF090013EE0FFD3942A503AEF88
:106DB00075F003A4FF2402FB9001447402F0A314B5
:106DC000F0E4FD1265FF90013EE075F003A4FF249E
:106DD00002FB900144743EF0A37401F07D3C126507
:096DE000FF90013EE004F080BCCC
:016DE9002287
:1051470090013E7406F090013EE0FFD39415502085
:10515700EF75F003A4FF2402FB9001447414F0A33D
:105167007401F07D121265FF90013EE004F080D6D5
:1051770090013E7413F090013EE0FFD39414503B2E
:10518700EF75F003A4FF2402FB9001447411F0A310
:105197007401F07D0F1265FF90013EE075F003A4E6
:1051A700FF2402FB9001447417F0A37401F07D15EE
:1051B7001265FF90013EE004F080BB90013E74123F
:1051C700F090013EE0FFD39413503BEF75F003A43A
:1051D700FF2402FB900144740EF0A37401F07D0CD0
:1051E7001265FF90013EE075F003A4FF2402FB90D7
:1051F7000144741AF0A37401F07D181265FF900141
:105207003EE004F080BB90013E7411F090013EE057
:10521700FFD39412503BEF75F003A4FF2402FB90D9
:105227000144740BF0A37401F07D091265FF90012E
:105237003EE075F003A4FF2402FB900144741DF0C7
:10524700A37401F07D1B1265FF90013EE004F0801E
:10525700BB90013E7410F090013EE0FFD3941150D3
:105267003BEF75F003A4FF2402FB9001447408F0A0
:10527700A37401F07D061265FF90013EE075F0030F
:10528700A4FF2402FB9001447420F0A37401F07D75
:0C5297001E1265FF90013EE004F080BB99
:0152A30022E8
:1053FF00E4900136F01268921251477BFF7A677979
:10540F004C7D067F01126C65906776E493900137AF
:10541F00F0906778E493900138F090677AE4939076
:10542F000139F0906777E49390013AF0438911D2F4
:10543F00A9D2AF90013D74C8F0900186F0D28C9044
:10544F000137E0FF700302550890017FE0640860A8
:10545F0003025508126980900138E0FF1269EB9042
:10546F000139E0FF126A5690013AE0FF126DEA909F
:10547F00013AE0702D900136E02402F0900138E0FF
:10548F00900137F0900139E0900138F0900136E04B
:10549F00FF90677A93900139F0EF906777939001BF
:1054AF003AF0900186E0700E90013DE0900186F099
:1054BF0090013AE014F012643C90013BEFF070035E
:1054CF0002544EE4A3F090013CE0C39496400302D3
:1054DF00544E900186E0701190013DE0900186F0EE
:1054EF0090013AE014F002544E90013BE0FF126E2F
:1054FF006390013CE004F080CDE4FF126D537BFF1D
:10550F007A6779517D067F03126C65126DA07BFF60
:10551F007A677954E4FD7F01126C657BFF7A6779B6
:08552F0065E4FD7F02026C65DA
:1022CC00D3CECFB7BDE1CAF800C4FAB5C4B5C3B715
:1022DC00D6CAC700B0B4D7F3C9CFBDC7CDCBB3F600
:1022EC00000000187E7EE7E7E7E7E7E7E77E3C00C3
:1022FC00000000001C3C7C7C1C1C1C1C1C1C1C00BE
:10230C00000000187EFEE7070E0E1C3870FFFF0061
:10231C00000000187EFFE7061E1E0747E77E7C00C4
:10232C00000000040E1E1E3E7E6EEEFFFF0E0E0021
:10233C00000000007E7EE0FCFEC70747C7FE7C0065
:10234C000000000C1C1C38787EE7E7E7E7FF7E00F6
:10235C0000000000FF7F060E0C1C18383838700087
:10236C00000000107EEEE7E67EFEE7C7E7FE7E008B
:10237C00000000187EEEE7C7E7FE7E1C18387000E0
:10238C000000000000000000000000000000000041
:10239C00000000001C3C7C7C1C1C1C1C1C1C1C001D
:1023AC00180000187EFEE7070E0E1C3870FFFF00A9
:1023BC00180000187EFFE7061E1E0747E77E7C000C
:1023CC00180000040E1E1E3E7E6EEEFFFF0E0E0069
:1023DC00180000007E7EE0FCFEC70747C7FE7C00AD
:1023EC001800000C1C1C38787EE7E7E7E7FF7E003E
:1023FC0018000000FF7F060E0C1C183838387000CF
:10240C00180000001C3C7C7C1C1C1C1C1C1C1C0094
:10241C00000000187EFEE7070E0E1C3870FFFF0050
:10242C00000000187EFFE7061E1E0747E77E7C00B3
:10243C00000000040E1E1E3E7E6EEEFFFF0E0E0010
:10244C00000000007E7EE0FCFEC70747C7FE7C0054
:10245C000000000C1C1C38787EE7E7E7E7FF7E00E5
:10246C0000000000FF7F060E0C1C18383838700076
:10247C00001800001C3C7C7C1C1C1C1C1C1C1C0024
:10248C00001800187EFEE7070E0E1C3870FFFF00C8
:10249C00001800187EFFE7061E1E0747E77E7C002B
:1024AC00001800040E1E1E3E7E6EEEFFFF0E0E0088
:1024BC00001800007E7EE0FCFEC70747C7FE7C00CC
:1024CC000018000C1C1C38787EE7E7E7E7FF7E005D
:1024DC000018000C1C1C38787EE7E7E7E7FF7E004D
:1024EC0000000000000000000000000000000000E0
:1024FC0000000000000000000000000000000000D0
:10250C0000000000000000000000000000000000BF
:10251C000000000E003E000E000E000E000E000E1D
:10252C00000E000E000E000E000E000E003F80008C
:10253C00000C00000000000000000000003F807B49
:10254C00C061C071C071C001C0038007000E001CC7
:10255C0000380070C061C0FFC000000C000000001B
:10256C00000000000000003F00738071C071C001CA
:10257C008007800F00038001C001C071C071C0735F
:10258C00803F8000000C00000000000000000003F1
:10259C0000070007000F001F001F003700370067FF
:1025AC0000C700FFC00700070007001FC000000C99
:1025BC0000000000000000000000007FC07F806071
:1025CC0000600060007F807BC061C001C000C071F2
:1025DC00C071C07F803F0000000C000000000000B4
:1025EC0000000000001F803DC071C070007000FF33
:1025FC0080FBC0F1C0E0E0E0E070E071C03BC01FC8
:10260C008000000C00000000000000000000007FB3
:10261C00C07F80618003000300060006000E000CE2
:10262C00001C001C001C001C001C0000000C000006
:10263C000000000000000000000E003E000E000E26
:10264C00000E000E000E000E000E000E000E000E0E
:10265C00000E003F800000000000000000000000A1
:10266C000000003F807BC061C071C071C001C0031D
:10267C008007000E001C00380070C061C0FFC00055
:10268C00000000000000000000000000003F00738C
:10269C008071C071C0018007800F00038001C001F0
:1026AC00C071C071C073803F80000000000000004A
:1026BC0000000000000300070007000F001F001FB0
:1026CC0000370037006700C700FFC007000700078E
:1026DC00001FC0000000000000000000000000000F
:1026EC00007FC07F806000600060007F807BC061E5
:1026FC00C001C000C071C071C07F803F00000000ED
:10270C0000000000000000000000001F803DC071B0
:10271C00C070007000FF80FBC0F1C0E0E0E0E07032
:10272C00E071C03BC01F80000000000000000000F2
:10273C0000000000007FC07F806180030003000662
:10274C000006000E000C001C001C001C001C001CD1
:10275C000000000000000000000C00000000000E53
:10276C00003E000E000E000E000E000E000E000EBD
:10277C00000E000E000E000E003F80000000000056
:10278C000000000C00000000003F807BC061C071A5
:10279C00C071C001C0038007000E001C003800701F
:1027AC00C061C0FFC000000000000000000C000071
:1027BC000000003F00738071C071C0018007800F62
:1027CC0000038001C001C071C071C073803F8000E4
:1027DC00000000000000000C0000000300070007D0
:1027EC00000F001F001F00370037006700C700FFF5
:1027FC00C00700070007001FC00000000000000019
:10280C00000C00000000007FC07F80600060006052
:10281C00007F807BC061C001C000C071C071C07FEF
:10282C00803F0000000000000000000C00000000D1
:10283C00001F803DC071C070007000FF80FBC0F1B4
:10284C00C0E0E0E0E070E071C03BC01F8000000021
:10285C0000000000000C00000000007FC07F8061C1
:10286C008003000300060006000E000C001C001C78
:10287C00001C001C001C0000000000000000003FB9
:10288C00C03FC030C030C030C030C030C030C036A7
:10289C00C036C036C036C036C036C036C000003F69
:1028AC00C03FC03FC03FC03FC03FC03FC03FC03F24
:1028BC00C03FC03FC03FC03FC03FC03FC000000052
:1028CC00000000000700000000001F000000007165
:1028DC009F00000000739F000000003F8700000075
:1028EC00001F07000000001E07000000003F07004B
:1028FC000000007B870000000071870000000000D2
:10290C009FC0000000001FC000000000000000007D
:10291C0000000000000000000F00000000001F80FD
:10292C00000000003BC000000073B1C00000007B41
:10293C0081C00000003F03800000001E07800000E3
:10294C00001F0F000000007F9E00000000739C0021
:10295C0000000071BFC0000000003FC0000000007C
:10296C0000000000000000000000000007C0000094
:10297C0000000FE000000038CC600000003DCC608F
:10298C000000001FC0E00000000F83C00000000723
:10299C0003C00000001F80E00000003DDC70000060
:1029AC000038DC70000000384E700000000007E0BA
:1029BC00000000000000000000000000000000000B
:1029CC000180000000000180000000618380000095
:1029DC00007387800000007F8F800000003F0D8017
:1029EC000000001E1D800000003F39800000007FA9
:1029FC00BFC000000073BFC00000006181800000F8
:102A0C000000018000000000000000000000000039
:102A1C000000000000000000003F80000301807FE8
:102A2C00C00003018071CE0E1F0180605FBF3F01AB
:102A3C0080E031BDB30180E7B1B1B30180E7F1B102
:102A4C00B3018060F1A1B3018071F1B1B300007FDB
:102A5C00DFBFBF01803F9F1F3F01800000000000CF
:102A6C000000000000000000000000300000070023
:102A7C0000300070370000300078700000300078B3
:102A8C007779E030007CF77DF030007EF76DB03068
:102A9C00007FF779C0300077F77DF0300073B71CFA
:102AAC0070000073B74F30300070377DE03000009D
:102ABC00000000000007FC0FFE0FFE0C060FFE0FBF
:102ACC00FE0C060C060C060C063C1E7C3E7C7E7C2A
:102ADC007C3838000000000018003C18661862189A
:102AEC00067F0C181818301860007E00000A020AC5
:102AFC00020B020C020C020B020A02090208020869
:102B0C000209020A020A03090109040A020A020B59
:102B1C00020C020C020B020A02090208020802094A
:102B2C00020A02090308010804090209020A020840
:102B3C000209020A010B010A02080209020A010B2E
:102B4C00010A0209020802090205040A020A020B20
:102B5C00020C020C020B020A02090208020802090A
:102B6C00020A02090308010804000000000000002A
:102B7C00000D010E010F030E010F0211020E050ACA
:102B8C00020D030C010D020F020C050A020B030AC5
:102B9C00010B010F010F020A050F020E030B010BB3
:0D2BAC00020E020E040000000000000000F8
:044B230041013F000D
:0B5A0900EF75F00FA4F0438911D2A943
:105A14009001477410F0A374FFF0A37428F0A374EA
:105A240089F07B027D2FE4FF1261AF90014774106F
:105A3400F0A374FFF0A37428F0A37489F07B027DB3
:105A44002F7F101261AF9001477410F0A374FFF020
:105A5400A37428F0A37489F07B027D2F7F20126148
:105A6400AF9001477410F0A374FFF0A37428F0A35F
:105A74007489F07B027D2F7F301261AF90014774EF
:105A840010F0A374FFF0A37428F0A37489F07B02D0
:105A94007D2F7F401261AF9001477410F0A374FF13
:105AA400F0A37428F0A37489F07B027D2F7F501239
:105AB40061AF9001477410F0A374FFF0A37428F051
:105AC400A37489F07B027D2F7F601261AF90014740
:105AD4007410F0A374FFF0A3742AF0A374C1F07BD4
:085AE40002E4FD7F300261AF16
:0557440090013BE0FFB5
:1057490090013FEFF0C39405402E900147740EF08D
:10575900A374FFF0A3742AF0A37419F07B067D0EDD
:105769007F501261AF900147740CF0A374FFF0A34E
:10577900742AF0A374E1803290013FE07035900102
:1057890047740EF0A374FFF0A3742AF0A3746DF0AC
:105799007B067D0E7F501261AF900147740EF0A316
:1057A90074FFF0A37424F0A374EDF07B027D1C7FD9
:1057B90070807890013FE024FE602414603B1460FF
:1057C9005224037069900147740EF0A374FFF0A38B
:1057D9007428F0A374C9F07B067D0E7F50804C902D
:1057E9000147740EF0A374FFF0A37429F0A3741D8C
:1057F900F07B067D0E7F508032900147740EF0A336
:1058090074FFF0A37429F0A37471F07B067D0E7FF9
:10581900508018900147740EF0A374FFF0A3742907
:0F582900F0A374C5F07B067D0E7F501261AF2295
:104FC800900143EDF0EFB40A004003025146904FC0
:104FD800DDF8282873024FFB02501C02503D025096
:104FE8005E02507F0250A00250C00250E002510001
:104FF800025120900143E0FFC374079FC454F0FF9F
:105008009001477410F0A374FFF0A37422F0A37406
:10501800ED02513E900143E0FFC374079FC454F072
:10502800FF9001477410F0A374FFF0A37422F0A35B
:1050380074FD02513E900143E0FFC374079FC454BE
:10504800F0FF9001477410F0A374FFF0A37423F0ED
:10505800A3740D02513E900143E0FFC374079FC43F
:1050680054F0FF9001477410F0A374FFF0A3742369
:10507800F0A3741D02513E900143E0FFC374079FE3
:10508800C454F0FF9001477410F0A374FFF0A374A8
:1050980023F0A3742D02513E900143E0FFC374072F
:1050A8009FC454F0FF9001477410F0A374FFF0A35D
:1050B8007423F0A3743D807E900143E0FFC374071E
:1050C8009FC454F0FF9001477410F0A374FFF0A33D
:1050D8007423F0A3744D805E900143E0FFC374070E
:1050E8009FC454F0FF9001477410F0A374FFF0A31D
:1050F8007423F0A3745D803E900143E0FFC37407FE
:105108009FC454F0FF9001477410F0A374FFF0A3FC
:105118007423F0A3746D801E900143E0FFC37407ED
:105128009FC454F0FF9001477410F0A374FFF0A3DC
:0F5138007423F0A3747DF07B01E4FD1261AF22BC
:106E2900EF75F06484FEEF75F06484AFF0EF75F0F0
:106E39000A8490013FF0EF75F00A84A3E5F0F0AF02
:106E4900067D02124FC890013FE0FF7D01124FC835
:0A6E5900900140E0FFE4FD024FC885
:0B406B0090013EE0902AFD93FF7D02D3
:1040760090013FEDF0E014F0EFB416004003024368
:104086003990408EF82828730240D00240EC024155
:104096000802412402414002415C024178024194F7
:1040A6000241B00241CC0241E8024204024220022F
:1040B600423C0242580242740242900242AC024220
:1040C600C70242E20242FD02431890013FE0C45497
:1040D600F0FF9001477410F0A374FFF0A37423F06F
:1040E600A3748D02433190013FE0C454F0FF900168
:1040F600477410F0A374FFF0A37423F0A3749D0219
:10410600433190013FE0C454F0FF9001477410F032
:10411600A374FFF0A37423F0A374AD02433190019E
:104126003FE0C454F0FF9001477410F0A374FFF011
:10413600A37423F0A374BD02433190013FE0C4543D
:10414600F0FF9001477410F0A374FFF0A37423F0FE
:10415600A374CD02433190013FE0C454F0FF9001B7
:10416600477410F0A374FFF0A37423F0A374DD0268
:10417600433190013FE0C454F0FF9001477410F0C2
:10418600A374FFF0A37423F0A374ED0243319001EE
:104196003FE0C454F0FF9001477410F0A374FFF0A1
:1041A600A37423F0A374FD02433190013FE0C4548D
:1041B600F0FF9001477410F0A374FFF0A37424F08D
:1041C600A3740D02433190013FE0C454F0FF900107
:1041D600477410F0A374FFF0A37424F0A3741D02B7
:1041E600433190013FE0C454F0FF9001477410F052
:1041F600A374FFF0A37424F0A3742D02433190013D
:104206003FE0C454F0FF9001477410F0A374FFF030
:10421600A37424F0A3743D02433190013FE0C454DB
:10422600F0FF9001477410F0A374FFF0A37424F01C
:10423600A3744D02433190013FE0C454F0FF900156
:10424600477410F0A374FFF0A37424F0A3745D0206
:10425600433190013FE0C454F0FF9001477410F0E1
:10426600A374FFF0A37424F0A3746D02433190018C
:104276003FE0C454F0FF9001477410F0A374FFF0C0
:10428600A37424F0A3747D02433190013FE0C4542B
:10429600F0FF9001477410F0A374FFF0A37424F0AC
:1042A600A3748D02433190013FE0C454F0FF9001A6
:1042B600477410F0A374FFF0A37424F0A3749D80D8
:1042C6006A90013FE0C454F0FF9001477410F0A3D8
:1042D60074FFF0A37424F0A374AD804F90013FE007
:1042E600C454F0FF9001477410F0A374FFF0A37458
:1042F60024F0A374BD803490013FE0C454F0FF90D5
:1043060001477410F0A374FFF0A37424F0A374CDD6
:10431600801990013FE0C454F0FF9001477410F0FB
:10432600A374FFF0A37424F0A374DDF07B01E4FD15
:044336001261AF223F
:0D3D8B00FEE0FDEE8DF0A4900186F0D28CDC
:103D9800EF75F00784AEF090013FEEF07003740702
:103DA800F090013FE014F0EFB41600400302406ABF
:103DB800903DBFF8282873023E01023E1D023E399D
:103DC800023E55023E71023E8D023EA9023EC502E8
:103DD8003EE1023EFD023F19023F35023F51023FDC
:103DE8006D023F89023FA5023FC1023FDD023FF855
:103DF80002401302402E02404990013FE0C454F0B3
:103E0800FF9001477415F0A374FFF0A37424F0A386
:103E180074ED02406290013FE0C454F0FF90014706
:103E28007415F0A374FFF0A37425F0A3741702406F
:103E38006290013FE0C454F0FF9001477415F0A36D
:103E480074FFF0A37425F0A3744102406290013F0F
:103E5800E0C454F0FF9001477415F0A374FFF0A379
:103E68007425F0A3746B02406290013FE0C454F0E3
:103E7800FF9001477415F0A374FFF0A37425F0A315
:103E8800749502406290013FE0C454F0FF900147EE
:103E98007415F0A374FFF0A37425F0A374BF024057
:103EA8006290013FE0C454F0FF9001477415F0A3FD
:103EB80074FFF0A37425F0A374E902406290013FF7
:103EC800E0C454F0FF9001477415F0A374FFF0A309
:103ED8007426F0A3741302406290013FE0C454F0CA
:103EE800FF9001477415F0A374FFF0A37426F0A3A4
:103EF800743D02406290013FE0C454F0FF900147D6
:103F08007415F0A374FFF0A37426F0A3746702403D
:103F18006290013FE0C454F0FF9001477415F0A38C
:103F280074FFF0A37426F0A3749102406290013FDD
:103F3800E0C454F0FF9001477415F0A374FFF0A398
:103F48007426F0A374BB02406290013FE0C454F0B1
:103F5800FF9001477415F0A374FFF0A37426F0A333
:103F680074E502406290013FE0C454F0FF900147BD
:103F78007415F0A374FFF0A37427F0A3740F024024
:103F88006290013FE0C454F0FF9001477415F0A31C
:103F980074FFF0A37427F0A3743902406290013FC4
:103FA800E0C454F0FF9001477415F0A374FFF0A328
:103FB8007427F0A3746302406290013FE0C454F098
:103FC800FF9001477415F0A374FFF0A37427F0A3C2
:103FD800748D02406290013FE0C454F0FF900147A5
:103FE8007415F0A374FFF0A37427F0A374B7806A64
:103FF80090013FE0C454F0FF9001477415F0A3749A
:10400800FFF0A37427F0A374E1804F90013FE0C450
:1040180054F0FF9001477415F0A374FFF0A37428BF
:10402800F0A3740B803490013FE0C454F0FF90017A
:10403800477415F0A374FFF0A37428F0A3743580B7
:104048001990013FE0C454F0FF9001477415F0A3A4
:1040580074FFF0A37428F0A3745FF07B027D1B1239
:0240680061AF46
:01406A002233
:0565690090013FEFF07E
:10656E001270D790013FE0FE75F064842430A3F0E2
:10657E00FCEE75F06484AEF0EE75F00A842430A360
:10658E00F0AF06EF75F00A84E5F02430A3F0AF0407
:10659E007D02124FC8900141E0FF7D01124FC8905D
:1065AE000142E0FFE4FD124FC87F01126F0F7BFF27
:1065BE007A2279CCE4FDFF126C657BFF7A2279D5C5
:1065CE00E4FD7F01126C657F3A127017900140E076
:1065DE00FF127017900141E0FF127017900142E018
:1065EE00FF1270177BFF7A2279E0E4FD7F02026CC6
:0165FE006537
:08583800900138E0FFA3E0FD40
:0858400090013FEFF0A3EDF031
:10584800E4A3F0FF30911830921530931230940F82
:1058580030950C3096093097063090030259242071
:105868009118A2C5E43375F007A42408FFA2C4E484
:105878003375F007A4FEC3EF9EFF209218A2C5E47B
:105888003375F007A42409FFA2C4E43375F007A414
:10589800FEC3EF9EFF209318A2C5E43375F007A45A
:1058A800240AFFA2C4E43375F007A4FEC3EF9EFFE9
:1058B800209418A2C5E43375F007A4240BFFA2C4F2
:1058C800E43375F007A4FEC3EF9EFF209518A2C528
:1058D800E43375F007A4240CFFA2C4E43375F00781
:1058E800A4FEC3EF9EFF209618A2C5E43375F00707
:1058F800A4240DFFA2C4E43375F007A4FEC3EF9EF1
:10590800FF209718A2C5E43375F007A4240EFFA260
:0C591800C4E43375F007A4FEC3EF9EFF4B
:015924002260
:05457200900136EFF09E
:10457700E490013EF0900136125A09E490013AF0B6
:10458700A3F0900139F090013C04F0E4FF126E298A
:1045970012574490017FE06409600302477F90014E
:1045A70037E075F00784E5F0701A9001477415F04D
:1045B700A374FFF0A37424F0A374EDF07B027D1BBA
:1045C7007F608026900137E075F00784E5F0C454DA
:1045D700F024F0FF9001477415F0A374FFF0A37463
:1045E70024F0A374EDF07B027D1B1261AFE4900110
:1045F70039F012574490013EE0FF902AFF93601B69
:10460700EF902AFB93FF7D0312407612406B9001D7
:104617003EE0902AFF93FF7D01803E90013EE0FF40
:10462700902AFD936014EF902AFB93FF7D031240BD
:104637007612406B7D01E4FF801F90013EE0902AD7
:10464700FB93FF7D0360028002E4FF1240767D0248
:10465700E4FF1240767D01E4FF124076758CD87531
:104667008AEF90013EE0902AF993900137F07003AA
:1046770002477F900137E0FFA3F090013EE004F08E
:10468700E0902AF993900136123D8B900186E070F5
:104697000302475690013CE0640160030247481259
:1046A700583890013DEFF0700302474BE490013C0E
:1046B700F0A3E075F00784E5F0701A9001477410D5
:1046C700F0A374FFF0A37428F0A374A9F07B027D14
:1046D7002F7F60802690013DE075F00784E5F0C4E8
:1046E70054F024F0FF9001477410F0A374FFF0A377
:1046F7007428F0A374A9F07B027D2F1261AF1257C3
:1047070044900138E0FF90013DE0B5072D90013955
:104717007401F090013BE004F090013AE004F0A34B
:10472700E0FFC39405400690013AE004F0125749B0
:1047370090013AE0FF126E29800AE490013BF08075
:1047470003125838900138E0FF126E6302469290C8
:104757000139E0700490013BF090013CE0700912D0
:104767005A1490013C7401F0C28C7F3212000690FB
:10477700013EE004F002459A90013AE0FF026569C4
:05433A00900136EFF0D8
:10433F00E490013EF0900136125A09E490013AF0F0
:10434F00A3F0900139F090013C04F0E4FF126E29C4
:10435F0090013BE0FF12574990017FE06409600331
:10436F0002456A900137E075F00784E5F0701A9006
:10437F0001477415F0A374FFF0A37424F0A374ED38
:10438F00F07B027D1B7F608026900137E075F00780
:10439F0084E5F0C454F024F0FF9001477415F0A3A6
:1043AF0074FFF0A37424F0A374EDF07B027D1B1255
:1043BF0061AFE4900139F090013BE0FF1257499053
:1043CF00013EE0FF902AFF936022EF902B7F93FF37
:1043DF007D0312407690013EE0902B811240729047
:1043EF00013EE0902B8393FF7D01804590013EE0DD
:1043FF00FF902B8193601BEF902B7F93FF7D031218
:10440F00407690013EE0902B811240727D01E4FFD7
:10441F00801F90013EE0902B7F93FF7D0360028011
:10442F0002E4FF1240767D02E4FF1240767D01E444
:10443F00FF124076758CD8758AEF90013EE0902B75
:10444F007D93900137F0700302456A900137E0FFCA
:10445F00A3F090013EE004F0E0902B7D93900136A5
:10446F00123D8B900186E0700302454190013CE0C4
:10447F006401600302453090013812583B90013DB2
:10448F00EFF07003024536E490013CF0A3E075F0C5
:10449F000784E5F0701A9001477410F0A374FFF0D1
:1044AF00A37428F0A374A9F07B027D2F7F60802670
:1044BF0090013DE075F00784E5F0C454F024F0FF5F
:1044CF009001477410F0A374FFF0A37428F0A37445
:1044DF00A9F07B027D2F1261AF90013BE0FF1257D5
:1044EF0049900138E0FF90013DE0B5072D9001396B
:1044FF007401F090013BE004F090013AE004F0A366
:10450F00E0FFC39405400690013AE004F0125749CA
:10451F0090013AE0FF126E29800DE490013BF0808C
:10452F000690013812583B900138E0FF126E63027B
:10453F004472900139E0700490013BF090013CE02F
:10454F007009125A1490013C7401F0C28C7F321220
:10455F00000690013EE004F002436790013AE0FF4D
:03456F0002656979
:100066000000000038000038000030000070001F5B
:100076006F007FFF8007C6003FF0001E70000E7005
:10008600000F70001F78003BFC0070CE00438F808D
:100096000207C00000000000000000000000001081
:1000A60078001C70000EC780039F80019B001DBB5B
:1000B600003DFF001DDF001DD8000D98007C1800D4
:1000C6007F980001F800007FE0001F00000000009C
:1000D60000000000000030000E38000F38000E3F10
:1000E600000DFE001C3F001DFF803DF7007DFF0058
:1000F600ECF0000DF0000CF0000C78001CFE001F68
:10010600CFE01C078000000000000000000FFF0089
:100116000007FF007F03FF0FE700070EE700070E4B
:10012600E700070EFF00070FE700070EE700070EC0
:10013600FF00070FF700030EE700010CE700000CB5
:10014600E700001CE7000018CF00003007000000A1
:1001560002000000000000000000000000007C001B
:1001660007F80001C00001C00001FE001FFE001FCD
:10017600C00003E0000360000760000EE0C01CE062
:10018600C03871C0607FC0001F0000000000000082
:10019600000000000000003C003F9C003F88000774
:1001A60007C006FF803E78003036003E7E007EFCAB
:1001B600007EF8000E36000EFF000FFF803DC38064
:1001C6001C0000000000000000000000039E001F4D
:1001D600BC00061E000FFE001E1E0007FF003FE0CB
:1001E6000039C00003F00007FC000ECF801CF7E0CA
:1001F60077F00000600000600000E00000C0000032
:100206000000000000008000C000E000E000E00008
:10021600E000E000E000E000FFC0FFE0FFF00000CB
:100226007FF0020002000200020002003FE002002E
:100236000200020002000200FFF820A02090388091
:1002460040F08380788020B823C0F89020A0204812
:1002560028A8331820080080448027F008800080F2
:100266008FF84000100017F024102410441047F0B7
:100276000410100010001FF020104010BF902090B6
:10028600209020903F902060200820081FF8100042
:100296001F8021007FE0A2203FE02220FFF800001F
:1002A6003FE020203FE020203FE000003FC00080EC
:1002B60001107A200B4012801240222042188E0034
:1002C600000000007FF000000000000000000000B9
:1002D6000000000000000000000000000000000018
:1002E60001FFC0000000000007FFF800000000004A
:1002F6001FFFFFF0000000007FFFFFFE0000000070
:10030600FFFBFFFF80000003FFEFFFFFC0000007B9
:10031600F7CFFFFFE0000007EF1FFFFFF000000F21
:10032600DE3FFFFFF000001FBC3FFFFFF800007F2D
:10033600FC7FFFFFFC0000FFF87FFFFFFE0001FED1
:10034600F87FE03FFF0001FFF07FCE0FFF8003FD47
:10035600F07FFF87FF8003FFE07FFFC3FFC007FB3F
:10036600E07FFFC1FFE007FBE07FFFE0FFE00FFB60
:10037600E03FFFE07FF00FFBE03FFFF03FF01FFBA9
:10038600E03FFFF3DFF01FF3E01FFFEFFFF81FF37F
:10039600F80FFFFFFFF81FFBFC07FFFFFFF83FFB0F
:1003A600FE01FFFFFFF83FFBFF00FFFFFFF83FFDE9
:1003B600FF003EFFFFF83FFDFF8001FFFFF83FFE15
:1003C600FF8001FFFFFC3FFFFF8001FF7FFC3FFF37
:1003D600FFBC01FFBFFC3FFFFFFF00FFBFFC3FFF6D
:1003E600FFFFC0FF9FFC3FFFFFFFE07FDFF81FFF1F
:1003F600FFFFF03FDFF81FFFFFFFF80FDFF81FFFDB
:10040600F7FFF807DFF81FFBCFFFFC07DFF00FFC55
:100416000FFFFC07DFF00FFE0FFFFE07DFF007FE02
:1004260007FFFE07DFE007FF07FFFE07FFE003FF0A
:10043600C3FFFE07BFC003FFE1FFFE0FBFC001FF02
:10044600F073FE0FFF8000FFFE0FFE1FFF0000FF90
:10045600FFFFFC1FFF00007FFFFFFC3FFE00003F89
:10046600FFFFF87DFC00001FFFFFF8FBF800000F00
:10047600FFFFF1FFE0000007FFFFF3FFC0000003EE
:10048600FFFFE7FF80000000FFFFDFFE0000000027
:100496007FFFFFFC000000001FFFFFF800000000C8
:1004A60003FFFFE000000000000FFF000000000057
:1004B600000FF8000000000000000000000000002F
:1004C6000000000000000000000000000000000026
:1004D6000000000000000000000000000000000016
:1004E6000000000000000000000000000000000006
:1004F60000000000000000000000000000000000F6
:1005060000000000000000000000000000000000E5
:100516000000000000000000007FC0000000000096
:1005260000FFFE000000000003FFFF800000000047
:100536000FFFFFF8000000003FF7FFF80000000083
:100546003EE7FFFC000000007B9FFFFE000000006E
:10055600FF1FFFFF00000001FF1FFFFF0000000755
:10056600EF1FC1FFC0000007FE1F987FE000000FCD
:10057600DE1FFE3FE000000FFC1FFE1FF000000F15
:10058600FC1FFF0FF000001FFC1FFF07FA00003FD3
:10059600FC1FFFBBF800003FBC0FFF7FFC00003FC5
:1005A600BF07FFFFFC00007FFF81FFFFFC00007F0D
:1005B600FFC0FFFFFC00007FDFC07BFFFC00007F69
:1005C600EFE007FFFC00007FFFE007F7FC00007F7D
:1005D600FFFC07FFFC00007FFFFF83FBFC00007FA2
:1005E600FFFFC1FBFC00003FFFFFE1FBFC00003FFB
:1005F600FEFFF03BFC00003FF9FFF03BF800001F58
:10060600C1FFF03BF800000FE0FFF83BF000000FE1
:10061600F0FFF83FF000000FF8FFF83FE00000079A
:10062600FE1BF87FE0000003FF87F8FFC000000311
:10063600FFFFF0FFC0000001FFFFF1DF0000000038
:10064600FFFFF3FF000000007FFFE7FE0000000051
:100656003FFFCFF8000000000FFFBFF000000000D2
:1006660007FFFFE00000000000FFFF0000000000A1
:100676000007FC00000000000007F000000000007A
:100686000000000000000000000000000000000064
:100696000000000000000000000000000000000054
:1006A6000000000000000000000000000000000044
:1006B6000000000000000000000000000000000034
:1006C6000000000000000000000000000000000024
:1006D6000000000000000000000000000000000014
:1006E6000000000000000000000000000000000004
:1006F60000000000000000000000000000000000F4
:1007060000000000000000000000000000000000E3
:1007160000000000000000000000000000000000D3
:1007260000000000000000000000000000000000C3
:100736000000000000000000001F80000000000014
:10074600003FF8000000000000FFFE00000000006F
:1007560007FBFFC00000000007B3FFC00000000059
:1007660007EFFFE0000000001FCFFFF000000000D1
:100776003DCF87F8000000003F8FB1FC000000006D
:100786007F0FF8FE000000007F0FFC7E00000000D7
:10079600FF0FFC3F00000001FF07FDFF0000000106
:1007A600FFC3FFFF00000001FFE1FFFF00000001A3
:1007B600FBE07FFF00000001FDF00FFF00000001DD
:1007C600FFF00FBF00000001FFFF8FFF00000001D8
:1007D600FFFF87FF00000001FFFFC7FF00000001C9
:1007E600FF7FE1FF00000000F87FE1FF000000004E
:1007F6007C3FF1FE000000007F3FF1FC000000009E
:100806003F8FF1FC000000003FE3F3F8000000001A
:100816001FFFE6F0000000000FFFEFF000000000F1
:1008260007FFCFE00000000001FFFF80000000008E
:1008360000FFFF0000000000003FFC000000000079
:100846000003E000000000000000000000000000BF
:100856000000000000000000000000000000000092
:100866000000000000000000000000000000000082
:100876000000000000000000000000000000000072
:100886000000000000000000000000000000000062
:100896000000000000000000000000000000000052
:1008A6000000000000000000000000000000000042
:1008B6000000000000000000000000000000000032
:1008C6000000000000000000000000000000000022
:1008D6000000000000000000000000000000000012
:1008E6000000000000000000000000000000000002
:1008F60000000000000000000000000000000000F2
:1009060000000000000000000000000000000000E1
:100916000001F800000000000007FE1FFFFEFFFFB9
:10092600FC0FFE3FFFFC7FFFFE0FF07FFFF83FFF4F
:10093600FF1FF0FFFFF01FFFFF1FF1FFFFE00FFF9C
:10094600FF9FF1FFFF8003FFFFDFF9FFE0000007D5
:10095600FFFFFFFFFFC007FFFFFFFFFFFF8003FF53
:10096600FFFFFFFFFF8001FFFFFFFFFFFF0000FF0C
:10097600FFFFFFFFFE00007FFFFFFFFFF800000004
:10098600FFFFFFFF00000000FFFFFFFFF800003F32
:10099600FFFFFFFFF800001FFFFFFFFFF000000F43
:1009A600FFFFFFFFF0000007FFFFFFFFE00000036F
:1009B600FFFFFFFF800000001FFFFFF800000000A0
:1009C6000FFFFFF800000001FFFFFFFF800000009F
:1009D600FFFFFFFF000000007FFFFFFE000000009A
:1009E6003FFFFFFC000000001FFFFFF800000000B3
:1009F60001FFFFC0000000001FFFFFF8000000001D
:100A06000FFFFFF00000000007FFFFF000000000EE
:100A160003FFFFE00000000001FFFFC00000000030
:100A2600003FFE0000000000003FFE000000000046
:100A3600003FFE0000000000003FFE000000000036
:100A4600003FFE0000000000003FFE000000000026
:100A5600001FFC0000000000000FF800000000006E
:100A6600000FF800000000000007F0000000000082
:100A76000003E000000000000001E00000000000AC
:100A86000001C0000000000000008000000000001F
:100A96000000000000000000000000000000000050
:100AA6000000000000000000000000000000000040
:100AB6000000000000000000000000000000000030
:100AC6000000000000000000000000000000000020
:100AD6000000000000000000000000000000000010
:100AE6000000000000000000000000000000000000
:100AF60000000000000000000000000000000000F0
:100B060000000000000000000000000000000000DF
:100B160000000000000000000000000000000000CF
:100B260000000000000000000000000000000000BF
:100B360000000000000000000001F00000000000BE
:100B46000003F8FFFE0000FFFF87E1FFFC00007FC7
:100B5600FFCFE3FFF800003FFFCFE7FFF000000FF5
:100B6600FFEFF7FC000000003FFFFFFFF000000F63
:100B7600FFFFFFFFE0000007FFFFFFFFC0000003CD
:100B8600FFFFFFFF80000001FFFFFFFF00000000E6
:100B96000FFFFFF000000001FFFFFFFF0000000055
:100BA600FFFFFFFE000000007FFFFFFC00000000CB
:100BB6003FFFFFF80000000003FFFFC00000000039
:100BC6001FFFFFF8000000000FFFFFF0000000000D
:100BD60007FFFFE00000000003FFFFC00000000069
:100BE600007FFE000000000003FFFF800000000001
:100BF60001FFFF800000000000FFFF000000000072
:100C0600003FF80000000000001FF8000000000090
:100C1600001FF80000000000001FF80000000000A0
:100C2600001FF80000000000000FF00000000000A8
:100C36000007F000000000000003E00000000000D4
:100C46000003C0000000000000018000000000005A
:100C5600000080000000000000000000000000000E
:100C6600000000000000000000000000000000007E
:100C7600000000000000000000000000000000006E
:100C8600000000000000000000000000000000005E
:100C9600000000000000000000000000000000004E
:100CA600000000000000000000000000000000003E
:100CB600000000000000000000000000000000002E
:100CC600000000000000000000000000000000001E
:100CD600000000000000000000000000000000000E
:100CE60000000000000000000000000000000000FE
:100CF60000000000000000000000000000000000EE
:100D060000000000000000000000000000000000DD
:100D160000000000000000000000000000000000CD
:100D260000000000000000000000000000000000BD
:100D360000000000000000000000000000000000AD
:100D4600000000000000000000000000000000009D
:100D56000003C000000000000007E00000000007DC
:100D6600FF878FFE00000003FFCF9FFC00000001FD
:100D7600FFEFDFF8000000000FFFFE00000000009C
:100D8600FFFFFFF0000000007FFFFFE00000000013
:100D96003FFFFFC00000000003FFFE000000000050
:100DA6001FFFFFC0000000000FFFFF8000000000D3
:100DB60001FFFC000000000007FFFF8000000000AC
:100DC60003FFFF000000000001FFFE00000000001E
:100DD600003FF0000000000000FFFC0000000000E3
:100DE600007FF80000000000003FF0000000000057
:100DF600001FE00000000000001FE00000000000EF
:100E0600001FE00000000000000FE00000000000EE
:100E16000007C000000000000007C000000000003E
:100E26000003800000000000000100000000000038
:100E360000000000000000000000000000000000AC
:100E4600000000000000000000000000000000009C
:100E5600000000000000000000000000000000008C
:100E6600000000000000000000000000000000007C
:100E7600000000000000000000000000000000006C
:100E8600000000000000000000000000000000005C
:100E9600000000000000000000000000000000004C
:100EA600000000000000000000000000000000003C
:100EB600000000000000000000000000000000002C
:100EC600000000000000000000000000000000001C
:100ED600000000000000000000000000000000000C
:100EE60000000000000000000000000000000000FC
:100EF60000000000000000000000000000000000EC
:100F060000000000000000000000000000000000DB
:100F160000000000000000000000000000000000CB
:100F260000000000000000000000000000000000BB
:100F360000000000000000000000000000000000AB
:100F460000000000000000000000001C000000007F
:100F560000000000000000000001FF3FFF0000004D
:100F660000000000000000000001FF3FFF0000003D
:100F760000000000000000000001FFFFFE0000006E
:100F8600000000000000000000006FFFDC00000011
:100F9600000000000000000000007FFFFC000000D1
:100FA600000000000000000000007FFFF8000000C5
:100FB600000000000000000000001FFFF00000001D
:100FC600000000000000000000001FFFF00000000D
:100FD600000000000000000000000FFFE00000001D
:100FE600000000000000000000000FFFF0000000FD
:100FF6000000000000000000000007FFE000000005
:10100600000000000000000000000BFFE0000000F0
:101016000000000000000000000003FFC000000008
:101026000000000000000000000001FF800000003A
:101036000000000000000000000000FE00000000AC
:101046000000000000000000000000FE000000009C
:1010560000000000000000000000007E000000000C
:1010660000000000000000000000003E000000003C
:1010760000000000000000000000003E000000002C
:101086000000000000000000000000180000000042
:101096000000000000000000000000080000000042
:1010A600000000000000000000000000000000003A
:1010B600000000000000000000000000000000002A
:1010C600000000000000000000000000000000001A
:1010D600000000000000000000000000000000000A
:1010E6000000000000000000000000000000000FEB
:1010F6000000000000000000000000000000001FCB
:10110600E00000000000000000000000000000FFFA
:10111600FE0000000000000000000000000001FFCB
:10112600FE0000000000000000000000000003FFB9
:10113600FF0000000000000000000000000003FFA8
:10114600FF8000000000000000000000000007FF14
:10115600FFC00000000000000000000000000FEFCC
:10116600F7E00000000000000000000000000FEFA4
:10117600FFE00000000000000000000000000FEF8C
:10118600FFF00000000000000000000000001FF358
:10119600FFE00000000000000000000000001FFB50
:1011A600FFE00000000000000000000000001FFC3F
:1011B600BFE00000000000000000000000001FFC6F
:1011C6003FE00000000000000000000000001FFFDC
:1011D600BFE00000000000000000000000001FFF4C
:1011E600DFE00000000000000000000000001FFF1C
:1011F600FFE00000000000000000000000000FDF1C
:10120600EFE00000000000000000000000000FFFFB
:10121600E7C000000000000000000000000007F723
:10122600EFC000000000000000000000000003FF07
:10123600FF8000000000000000000000000003FF27
:10124600FF8000000000000000000000000001FF19
:10125600FF00000000000000000000000000007F0A
:10126600FC00000000000000000000000000003F3D
:10127600F800000000000000000000000000000070
:101286000000000000000000000000000000000058
:101296000000000000000000000000000000000048
:1012A6000000000000000000000000000000000038
:1012B6000000000000000000000000000000000028
:1012C6000000000000000000000000000000000018
:1012D6000000000000000000000000000000000008
:1012E60000000000000000000000000000000000F8
:1012F60000000000000000000000000000000000E8
:1013060000000000000000000000000000000000D7
:1013160000000000000000000000000000000000C7
:1013260000000000000000000000000000000000B7
:1013360000000000000000000000000000000000A7
:101346000000000000000000000000000000000097
:101356000000000000000000000000000001800006
:1013660000000000000000000000000003FBFF007A
:1013760000000000000000000000000003FBFF006A
:1013860000000000000000000000000000FFFC005C
:1013960000000000000000000000000000FFFC004C
:1013A600000000000000000000000000007FF800C0
:1013B600000000000000000000000000007FF800B0
:1013C600000000000000000000000000003FF000E8
:1013D600000000000000000000000000003FF000D8
